00COTAHIST.2024BOVESPA 20240828                                                                                                                                                                                                                      
012024010202AALR3       010ALLIAR      ON      NM   R$  000000000102000000000010360000000000850000000000093200000000008500000000000850000000000085201993000000000000430400000000000401487500000000000000009999123100000010000000000000BRAALRACNOR6102
012024010202ABCB4       010ABC BRASIL  PN  EJS N2   R$  000000000239800000000023980000000002279000000000231100000000022880000000002288000000000228908964000000000001944700000000004494730800000000000000009999123100000010000000000000BRABCBACNPR4145
012024010202ABEV3       010AMBEV S/A   ON  EJ       R$  000000000137200000000013730000000001359000000000136700000000013710000000001370000000000137116587000000000011690200000000015983911100000000000000009999123100000010000000000000BRABEVACNOR1127
012024010202BBDC3       010BRADESCO    ON  EJ  N1   R$  000000000152600000000015260000000001498000000000150800000000015110000000001508000000000151206674000000000004545600000000006857685400000000000000009999123100000010000000000000BRBBDCACNOR1764
012024010202ALPA3       010ALPARGATAS  ON      N1   R$  000000000101100000000010300000000000999000000000100400000000010000000000000972000000000105600020000000000000002900000000000002912000000000000000009999123100000010000000000000BRALPAACNOR0231
012024010202ALPA4       010ALPARGATAS  PN      N1   R$  000000000101000000000010120000000000931000000000097100000000009310000000000931000000000093214280000000000006907000000000006713502800000000000000009999123100000010000000000000BRALPAACNPR7232
012024010202ALPK3       010ESTAPAR     ON      NM   R$  000000000049200000000004970000000000447000000000046000000000004660000000000455000000000046600982000000000000234900000000000108194400000000000000009999123100000010000000000000BRALPKACNOR9101
012024010202ALUP11      010ALUPAR      UNT     N2   R$  000000000314600000000031560000000003025000000000305300000000030450000000003043000000000305304451000000000000834400000000002547695200000000000000009999123100000010000000000000BRALUPCDAM15117
012024010202ALUP3       010ALUPAR      ON      N2   R$  000000000104600000000010460000000001007000000000102300000000010150000000001010000000000102500124000000000000014400000000000014731400000000000000009999123100000010000000000000BRALUPACNOR8117
012024010202ALUP4       010ALUPAR      PN      N2   R$  000000000106200000000010620000000001000000000000102300000000010000000000001000000000000102700211000000000000032200000000000032965200000000000000009999123100000010000000000000BRALUPACNPR5117
012024010202AMAR3       010LOJAS MARISAON      NM   R$  000000000036300000000003710000000000345000000000035400000000003480000000000348000000000035001652000000000000965800000000000342819000000000000000009999123100000010000000000000BRAMARACNOR4114
012024010202AMBP3       010AMBIPAR     ON      NM   R$  000000000161700000000016290000000001551000000000158300000000015580000000001558000000000155907292000000000001379300000000002183818700000000000000009999123100000010000000000000BRAMBPACNOR6103
012024010202RCSL3       010RECRUSUL    ON           R$  000000000024300000000002730000000000238000000000025400000000002480000000000248000000000025104051000000000004944100000000001260670600000000000000009999123100000010000000000000BRRCSLACNOR4133
012024010202RCSL4       010RECRUSUL    PN           R$  000000000008800000000000880000000000086000000000008700000000000870000000000086000000000008701555000000000002908500000000000253074400000000000000009999123100000010000000000000BRRCSLACNPR1133
012024010202RDNI3       010RNI         ON      NM   R$  000000000046900000000004720000000000450000000000046200000000004630000000000456000000000046400065000000000000026700000000000012335700000000000000009999123100000010000000000000BRRDNIACNOR9116
012024010202RDOR3       010REDE D OR   ON  EJ  NM   R$  000000000281100000000028360000000002758000000000278000000000027740000000002773000000000277614625000000000004877200000000013560946000000000000000009999123100000010000000000000BRRDORACNOR8111
012024010202TASA4       010TAURUS ARMASPN      N2   R$  000000000152000000000015230000000001470000000000149500000000014760000000001474000000000147903519000000000000547700000000000818814000000000000000009999123100000010000000000000BRTASAACNPR4103
012024010202TCSA3       010TECNISA     ON      NM   R$  000000000039800000000004000000000000382000000000038900000000003920000000000387000000000039200289000000000000112500000000000043829100000000000000009999123100000010000000000000BRTCSAACNOR3112
012024010202TECN3       010TECHNOS     ON      NM   R$  000000000035200000000003650000000000350000000000035800000000003630000000000361000000000036301150000000000000334800000000000119979300000000000000009999123100000010000000000000BRTECNACNOR6108
012024010202TELB3       010TELEBRAS    ON           R$  000000000157500000000015750000000001542000000000155400000000015420000000001540000000000157500004000000000000000500000000000000777000000000000000009999123100000010000000000000BRTELBACNOR2140
012024010202TELB4       010TELEBRAS    PN           R$  000000000129100000000012960000000001230000000000125800000000012310000000001222000000000125900029000000000000010700000000000013468200000000000000009999123100000010000000000000BRTELBACNPR9140
012024010202TRAD3       010TC          ON      NM   R$  000000000008700000000000870000000000083000000000008400000000000860000000000084000000000008600632000000000000642700000000000054519600000000000000009999123100000010000000000000BRTRADACNOR3101
012024010202TRIS3       010TRISUL      ON      NM   R$  000000000057500000000005750000000000545000000000055700000000005490000000000548000000000054904444000000000001668800000000000930986600000000000000009999123100000010000000000000BRTRISACNOR4116
012024010202TRPL3       010TRAN PAULISTON      N1   R$  000000000351400000000036000000000003514000000000356200000000035850000000003548000000000360000008000000000000000800000000000002850100000000000000009999123100000010000000000000BRTRPLACNOR4185
012024010202TRPL4       010TRAN PAULISTPN      N1   R$  000000000263800000000026680000000002598000000000261900000000026200000000002618000000000262013568000000000002271400000000005948863600000000000000009999123100000010000000000000BRTRPLACNPR1185
012024010202VLID3       010VALID       ON      NM   R$  000000000207900000000021020000000002047000000000206600000000020600000000002055000000000206004417000000000000684400000000001414316800000000000000009999123100000010000000000000BRVLIDACNOR5141
012024010202BMEB3       010MERCANTIL   ON  EJ  N1   R$  000000000202200000000020220000000002018000000000202000000000020220000000001800000000000204000004000000000000000600000000000001212400000000000000009999123100000010000000000000BRBMEBACNOR8205
012024010202BMEB4       010MERCANTIL   PN  EJ  N1   R$  000000000170000000000017050000000001650000000000169000000000016500000000001604000000000168000043000000000000014600000000000024678400000000000000009999123100000010000000000000BRBMEBACNPR5210
012024010202BMGB4       010BANCO BMG   PN  EJ  N1   R$  000000000032500000000003260000000000312000000000031800000000003160000000000313000000000031601734000000000001023500000000000326116700000000000000009999123100000010000000000000BRBMGBACNPR0108
012024010202BMKS3       010BIC MONARK  ON           R$  000000003599800000000359980000000035097000000003597100000000359970000000035000000000003599700011000000000000000050000000000001798580000000000000009999123100000010000000000000BRBMKSACNOR9165
012024010202BMOB3       010BEMOBI TECH ON  EJ  NM   R$  000000000140100000000014040000000001342000000000136000000000013650000000001361000000000136502868000000000000432700000000000588503400000000000000009999123100000010000000000000BRBMOBACNOR7103
012024010202BNBR3       010NORD BRASIL ON           R$  000000001120000000000112000000000011200000000001120000000000112000000000010950000000001145000001000000000000000100000000000001120000000000000000009999123100000010000000000000BRBNBRACNOR8206
012024010202BOBR4       010BOMBRIL     PN           R$  000000000020400000000002050000000000200000000000020200000000002000000000000200000000000020200057000000000000041600000000000008412600000000000000009999123100000010000000000000BRBOBRACNPR3128
012024010202CCRO3       010CCR SA      ON      NM   R$  000000000140700000000014130000000001382000000000139500000000013990000000001396000000000140012825000000000004084400000000005701013600000000000000009999123100000010000000000000BRCCROACNOR2144
012024010202BRAP4       010BRADESPAR   PN      N1   R$  000000000257100000000025840000000002531000000000255900000000025410000000002541000000000254408865000000000003148900000000008059346800000000000000009999123100000010000000000000BRBRAPACNPR2147
012024010202EPAR3       010EMBPAR S/A  ON  EDC      R$  000000000118000000000011800000000001078000000000111600000000010810000000001080000000000109200173000000000000041000000000000045782000000000000000009999123100000010000000000000BREPARACNOR9104
012024010202EQMA3B      010EQTLMARANHAOON      MB   R$  000000000297900000000029800000000002950000000000296900000000029500000000002907000000000297000003000000000000000600000000000001781800000000000000009999123100000010000000000000BREQMAACNOR8107
012024010202EQPA3       010EQTL PARA   ON           R$  000000000076200000000007630000000000748000000000076000000000007630000000000755000000000076500009000000000000003000000000000002281000000000000000009999123100000010000000000000BREQPAACNOR1109
012024010202EQTL3       010EQUATORIAL  ON      NM   R$  000000000357200000000035820000000003486000000000351200000000035000000000003500000000000350216035000000000004762600000000016727575300000000000000009999123100000010000000000000BREQTLACNOR0129
012024010202ESPA3       010ESPACOLASER ON      NM   R$  000000000012300000000001240000000000114000000000011800000000001150000000000114000000000011503801000000000002244800000000000265225600000000000000009999123100000010000000000000BRESPAACNOR7103
012024010202ESTR4       010ESTRELA     PN           R$  000000000040200000000004180000000000400000000000040100000000004180000000000400000000000041700006000000000000002600000000000001043800000000000000009999123100000010000000000000BRESTRACNPR0144
012024010202EUCA3       010EUCATEX     ON  EJ  N1   R$  000000000160600000000016520000000001605000000000162000000000016500000000001610000000000165000010000000000000001100000000000001782900000000000000009999123100000010000000000000BREUCAACNOR1157
012024010202CRFB3       010CARREFOUR BRON      NM   R$  000000000123200000000012440000000001192000000000120600000000012010000000001200000000000120213862000000000004574900000000005519152100000000000000009999123100000010000000000000BRCRFBACNOR2116
012024010202CRIV3       010ALFA FINANC ON           R$  000000000058900000000005890000000000589000000000058900000000005890000000000589000000000059000002000000000000000400000000000000235600000000000000009999123100000010000000000000BRCRIVACNOR4195
012024010202CRIV4       010ALFA FINANC PN           R$  000000000057400000000005890000000000574000000000057400000000005870000000000583000000000058800025000000000000102400000000000058806000000000000000009999123100000010000000000000BRCRIVACNPR1210
012024010202CRPG5       010CRISTAL     PNA          R$  000000000378500000000037850000000003666000000000371400000000037200000000003673000000000374900029000000000000003000000000000011143600000000000000009999123100000010000000000000BRCRPGACNPA3118
012024010202CRPG6       010CRISTAL     PNB          R$  000000000358200000000036800000000003551000000000366400000000036110000000003610000000000368000025000000000000005600000000000020520300000000000000009999123100000010000000000000BRCRPGACNPB1118
012024010202CSAN3       010COSAN       ON      NM   R$  000000000193800000000019480000000001905000000000192400000000019220000000001919000000000192212946000000000005096300000000009807304100000000000000009999123100000010000000000000BRCSANACNOR6124
012024010202CSED3       010CRUZEIRO EDUON      NM   R$  000000000053200000000005320000000000514000000000052000000000005150000000000515000000000051602267000000000000403200000000000209984200000000000000009999123100000010000000000000BRCSEDACNOR9104