00COTAHIST.2023BOVESPA 20231228                                                                                                                                                                                                                      
012023010202NEOE3       010NEOENERGIA  ON      NM   R$  000000000154000000000015400000000001498000000000150800000000015030000000001503000000000150601916000000000000325000000000000490215100000000000000009999123100000010000000000000BRNEOEACNOR3117
012023010202NEXP3       010NEXPE       ON      NM   R$  000000000003100000000000310000000000029000000000002900000000000300000000000030000000000003100255000000000000197700000000000005898000000000000000009999123100000010000000000000BRNEXPACNOR0100
012023010202NGRD3       010NEOGRID     ON      NM   R$  000000000014800000000001500000000000143000000000014600000000001450000000000145000000000014601011000000000000589900000000000086150900000000000000009999123100000010000000000000BRNGRDACNOR3102
012023010202NINJ3       010GETNINJAS   ON      NM   R$  000000000027000000000002790000000000269000000000027300000000002710000000000271000000000027900421000000000000076000000000000020792600000000000000009999123100000010000000000000BRNINJACNOR5100
012023010202NORD3       010NORDON MET  ON           R$  000000000084800000000009000000000000848000000000085700000000008500000000000720000000000084900017000000000000002700000000000002314300000000000000009999123100000010000000000000BRNORDACNOR7135
012023010202TTEN3       0103TENTOS     ON      NM   R$  000000000096500000000009650000000000907000000000092300000000009360000000000935000000000093603292000000000000701700000000000648253300000000000000009999123100000010000000000000BRTTENACNOR0101
012023010202TUPY3       010TUPY        ON  EJ  NM   R$  000000000277100000000027710000000002583000000000263700000000026570000000002643000000000265703367000000000000573000000000001511380400000000000000009999123100000010000000000000BRTUPYACNOR1180
012023010202UCAS3       010UNICASA     ON      NM   R$  000000000025500000000002550000000000247000000000025000000000002490000000000248000000000025100024000000000000009600000000000002401600000000000000009999123100000010000000000000BRUCASACNOR1112
012023010202UGPA3       010ULTRAPAR    ON      NM   R$  000000000124000000000012520000000001185000000000120100000000011950000000001189000000000119510920000000000002973300000000003572179500000000000000009999123100000010000000000000BRUGPAACNOR8152
012023010202ALUP11      010ALUPAR      UNT     N2   R$  000000000279300000000028240000000002720000000000276500000000027670000000002767000000000276804721000000000000795800000000002200878800000000000000009999123100000010000000000000BRALUPCDAM15113
012023010202DMVF3       010D1000VFARMA ON      NM   R$  000000000040000000000004070000000000395000000000040200000000003990000000000399000000000040300046000000000000007500000000000003017400000000000000009999123100000010000000000000BRDMVFACNOR9100
012023010202DOHL4       010DOHLER      PN           R$  000000000042400000000004290000000000421000000000042300000000004260000000000418000000000042400012000000000000001700000000000000719600000000000000009999123100000010000000000000BRDOHLACNPR9066
012023010202DOTZ3       010DOTZ SA     ON      NM   R$  000000000012900000000001290000000000123000000000012400000000001270000000000125000000000012700114000000000000029400000000000003663800000000000000009999123100000010000000000000BRDOTZACNOR7100
012023010202DXCO3       010DEXCO       ON  EB  NM   R$  000000000066900000000006690000000000645000000000065700000000006630000000000663000000000066405512000000000001491800000000000980314700000000000000009999123100000010000000000000BRDXCOACNOR8103
012023010202EALT4       010ACO ALTONA  PN           R$  000000000067100000000006940000000000656000000000067100000000006560000000000656000000000066000164000000000000046000000000000030887600000000000000009999123100000010000000000000BREALTACNPR1136
012023010202PORT3       010WILSON SONS ON      NM   R$  000000000108200000000011020000000001058000000000106600000000010600000000001060000000000106900705000000000000115700000000000123348400000000000000009999123100000010000000000000BRPORTACNOR8103
012023010202POSI3       010POSITIVO TECON      NM   R$  000000000093900000000009400000000000866000000000088800000000008820000000000881000000000088205082000000000001761000000000001564475400000000000000009999123100000010000000000000BRPOSIACNOR9114
012023010202PRIO3       010PETRORIO    ON      NM   R$  000000000368800000000037660000000003645000000000368700000000036760000000003676000000000367924159000000000006577200000000024255931200000000000000009999123100000010000000000000BRPRIOACNOR1104
012023010202SYNE3       010SYN PROP TECON      NM   R$  000000000041300000000004130000000000400000000000040500000000004060000000000406000000000040800858000000000000857000000000000347935200000000000000009999123100000010000000000000BRSYNEACNOR2102
012023010202BLAU3       010BLAU        ON  EJ  NM   R$  000000000280000000000028000000000002523000000000259400000000026030000000002603000000000260901079000000000000141000000000000365797400000000000000009999123100000010000000000000BRBLAUACNOR8108
012023010202ABEV3       010AMBEV S/A   ON           R$  000000000144000000000014450000000001402000000000141900000000014190000000001418000000000142036426000000000014995900000000021285685100000000000000009999123100000010000000000000BRABEVACNOR1126
012023010202BRGE11      010ALFA CONSORCPNE          R$  000000000089000000000008900000000000890000000000089000000000008900000000000890000000000099900001000000000000000100000000000000089000000000000000009999123100000010000000000000BRBRGEACNPE1109
012023010202BRIT3       010BRISANET    ON      NM   R$  000000000027300000000002730000000000252000000000025400000000002540000000000254000000000025500811000000000000830500000000000211349800000000000000009999123100000010000000000000BRBRITACNOR0101
012023010202BRIV3       010ALFA INVEST ON           R$  000000000090000000000009000000000000900000000000090000000000009000000000000882000000000093400001000000000000000100000000000000090000000000000000009999123100000010000000000000BRBRIVACNOR6208
012023010202BRIV4       010ALFA INVEST PN           R$  000000000092900000000009290000000000850000000000087000000000008990000000000872000000000093900007000000000000001900000000000001653100000000000000009999123100000010000000000000BRBRIVACNPR3215
012023010202BRKM3       010BRASKEM     ON      N1   R$  000000000249700000000024970000000002406000000000245700000000024960000000002439000000000249700062000000000000009400000000000023099600000000000000009999123100000010000000000000BRBRKMACNOR1119
012023010202BRKM5       010BRASKEM     PNA     N1   R$  000000000238600000000023860000000002288000000000232100000000023220000000002322000000000232806925000000000001345700000000003123548200000000000000009999123100000010000000000000BRBRKMACNPA4120
012023010202BRML3       010BR MALLS PARON      NM   R$  000000000082000000000008210000000000798000000000080500000000008030000000000803000000000080425980000000000008134100000000006550442000000000000000009999123100000010000000000000BRBRMLACNOR9117
012023010202BRPR3       010BR PROPERT  ON      NM   R$  000000000064200000000006420000000000629000000000063200000000006330000000000633000000000063404094000000000001297900000000000820937700000000000000009999123100000010000000000000BRBRPRACNOR9124
012023010202DASA3       010DASA        ON  EJ  NM   R$  000000000136600000000013690000000001283000000000132200000000013380000000001337000000000133903124000000000000396900000000000524958800000000000000009999123100000010000000000000BRDASAACNOR1122
012023010202ODPV3       010ODONTOPREV  ON      NM   R$  000000000090000000000009020000000000869000000000088500000000008890000000000882000000000088902380000000000000836500000000000740496300000000000000009999123100000010000000000000BRODPVACNOR4193
012023010202OFSA3       010OUROFINO S/AON      NM   R$  000000000237700000000024010000000002365000000000236600000000023650000000002352000000000237900006000000000000008300000000000019639100000000000000009999123100000010000000000000BROFSAACNOR7115
012023010202OIBR3       010OI          ON      N1   R$  000000000001700000000000180000000000017000000000001700000000000170000000000017000000000001806498000000000043178300000000000748225800000000000000009999123100000010000000000000BROIBRACNOR1109
012023010202OIBR4       010OI          PN      N1   R$  000000000005200000000000540000000000051000000000005200000000000530000000000053000000000005400478000000000001350700000000000071523800000000000000009999123100000010000000000000BROIBRACNPR8108
012023010202ONCO3       010ONCOCLINICASON      NM   R$  000000000059500000000005960000000000554000000000056800000000005790000000000579000000000059004098000000000001937800000000001101961200000000000000009999123100000010000000000000BRONCOACNOR6100
012023010202PFRM3       010PROFARMA    ON  EJ  NM   R$  000000000036300000000003630000000000348000000000035100000000003480000000000348000000000035200682000000000000132100000000000046477400000000000000009999123100000010000000000000BRPFRMACNOR1114
012023010202SEER3       010SER EDUCA   ON      NM   R$  000000000044000000000004400000000000423000000000042900000000004360000000000432000000000043601412000000000000497800000000000213585200000000000000009999123100000010000000000000BRSEERACNOR5119
012023010202SEQL3       010SEQUOIA LOG ON      NM   R$  000000000030100000000003070000000000281000000000029000000000002930000000000292000000000029303707000000000002604100000000000757068000000000000000009999123100000010000000000000BRSEQLACNOR2100
012023010202SGPS3       010SPRINGS     ON      NM   R$  000000000013800000000001380000000000124000000000012800000000001270000000000127000000000013200291000000000000222100000000000028448700000000000000009999123100000010000000000000BRSGPSACNOR4104
012023010202SHOW3       010TIME FOR FUNON      NM   R$  000000000023500000000002450000000000230000000000023600000000002450000000000243000000000024500390000000000000131500000000000031156700000000000000009999123100000010000000000000BRSHOWACNOR7105
012023010202SHUL4       010SCHULZ      PN  EJ       R$  000000000047000000000004710000000000451000000000045800000000004620000000000462000000000046300662000000000000390100000000000178714700000000000000009999123100000010000000000000BRSHULACNPR4149
012023010202SIMH3       010SIMPAR      ON  EJ  NM   R$  000000000066500000000006650000000000621000000000063100000000006330000000000633000000000063408580000000000002999600000000001894721300000000000000009999123100000010000000000000BRSIMHACNOR0106
012023010202SLCE3       010SLC AGRICOLAON  EJ  NM   R$  000000000459400000000046170000000004501000000000457100000000045940000000004593000000000459504556000000000000731200000000003342643600000000000000009999123100000010000000000000BRSLCEACNOR2120
012023010202ALUP3       010ALUPAR      ON      N2   R$  000000000095900000000009590000000000892000000000090100000000009050000000000905000000000091200094000000000000016200000000000014610700000000000000009999123100000010000000000000BRALUPACNOR8113
012023010202ALUP4       010ALUPAR      PN      N2   R$  000000000096300000000009630000000000910000000000092600000000009100000000000909000000000093000053000000000000008400000000000007782700000000000000009999123100000010000000000000BRALUPACNPR5113
012023010202AMAR3       010LOJAS MARISAON      NM   R$  000000000012400000000001250000000000117000000000012000000000001250000000000124000000000012502794000000000004320500000000000520344500000000000000009999123100000010000000000000BRAMARACNOR4113
012023010202AMBP3       010AMBIPAR     ON      NM   R$  000000000205300000000020530000000001971000000000200400000000020340000000002034000000000203503932000000000000885900000000001775669300000000000000009999123100000010000000000000BRAMBPACNOR6102
012023010202AMER3       010AMERICANAS  ON      NM   R$  000000000094700000000009510000000000897000000000091400000000009030000000000902000000000090320553000000000016237300000000014843793800000000000000009999123100000010000000000000BRAMERACNOR6101
012023010202MEAL3       010IMC S/A     ON      NM   R$  000000000028000000000002810000000000267000000000027500000000002810000000000277000000000028103928000000000000976900000000000269089600000000000000009999123100000010000000000000BRMEALACNOR9105