00COTAHIST.2022BOVESPA 20221229                                                                                                                                                                                                                      
012022010302GNDI3       010INTERMEDICA ON      NM   R$  000000000597000000000060880000000005727000000000589600000000058750000000005873000000000587520535000000000003960200000000023351263100000000000000009999123100000010000000000000BRGNDIACNOR2103
012022010302ABEV3       010AMBEV S/A   ON           R$  000000000154200000000015540000000001515000000000152900000000015330000000001532000000000153343784000000000023833600000000036454098800000000000000009999123100000010000000000000BRABEVACNOR1125
012022010302MODL11      010MODALMAIS   UNT     N2   R$  000000000108000000000011470000000001071000000000110800000000010930000000001093000000000111103729000000000000725000000000000803365000000000000000009999123100000010000000000000BRMODLCDAM13103
012022010302TASA4       010TAURUS ARMASPN      N2   R$  000000000250000000000025050000000002428000000000246600000000024540000000002449000000000245402665000000000000610900000000001506876600000000000000009999123100000010000000000000BRTASAACNPR4100
012022010302CRIV4       010ALFA FINANC PN           R$  000000000056800000000005700000000000557000000000056800000000005700000000000557000000000057000010000000000000005800000000000003296500000000000000009999123100000010000000000000BRCRIVACNPR1206
012022010302UPAC34      010UNIONPACIFICDRN          R$  000000003562100000000356210000000035140000000003533100000000352450000000030000000000000000000013000000000000000247000000000008726915000000000000009999123100000010000000000000BRUPACBDR001126
012022010302MCDC34      010MCDONALDS   DRN          R$  000000000752000000000076500000000007510000000000756400000000075800000000007575000000000765001446000000000000035334000000000267277622000000000000009999123100000010000000000000BRMCDCBDR000146
012022010302I1XC34      010ORIX CORP   DRN          R$  000000000725500000000072550000000007255000000000725500000000072550000000007140000000000725500001000000000000000208000000000001509040000000000000009999123100000010000000000000BRI1XCBDR003102
012022010302HAGA4       010HAGA S/A    PN           R$  000000000020200000000002100000000000194000000000019900000000002020000000000200000000000020200183000000000000059700000000000011937600000000000000009999123100000010000000000000BRHAGAACNPR4103
012022010302LPSB3       010LOPES BRASILON      NM   R$  000000000022900000000002320000000000214000000000021900000000002140000000000214000000000021701915000000000001552200000000000341483300000000000000009999123100000010000000000000BRLPSBACNOR0111
012022010302RCSL3       010RECRUSUL    ON           R$  000000000057600000000006330000000000563000000000059900000000005700000000000570000000000057314894000000000006668000000000003997674300000000000000009999123100000010000000000000BRRCSLACNOR4130
012022010302BIAU39      010GOLD TRUST  DRN          R$  000000000483800000000048600000000004838000000000485000000000048600000000004817000000000490000022000000000000001309000000000006349343000000000000009999123100000010000000000000BRBIAUBDR008102
012022010302ELET3       010ELETROBRAS  ON      N1   R$  000000000334400000000034190000000003248000000000329200000000032630000000003263000000000326517545000000000003669800000000012082918200000000000000009999123100000010000000000000BRELETACNOR6157
012022010302V1IP34      010VIPSHOP HOLDDRN          R$  000000000238100000000023810000000002381000000000238100000000023810000000002000000000000424400001000000000000000001000000000000002381000000000000009999123100000010000000000000BRV1IPBDR009100
012022010302SOJA3       010BOA SAFRA   ON      NM   R$  000000000159000000000016420000000001544000000000158000000000015610000000001559000000000156101360000000000000275200000000000434909600000000000000009999123100000010000000000000BRSOJAACNOR9100
012022010302IFCM3       010INFRACOMM   ON      NM   R$  000000000178000000000017800000000001684000000000174000000000017800000000001714000000000178005731000000000001682000000000002927020300000000000000009999123100000010000000000000BRIFCMACNOR8100
012022010302BEWZ39      010MSCI BRAZIL DRN ED       R$  000000000516800000000051680000000005168000000000516800000000051680000000000000000000000000000001000000000000000200000000000001033600000000000000009999123100000010000000000000BRBEWZBDR000104
012022010302REDE3       010REDE ENERGIAON           R$  000000000065000000000006700000000000650000000000066200000000006660000000000660000000000066700004000000000000000600000000000000397600000000000000009999123100000010000000000000BRREDEACNOR7119
012022010302E1TN34      010EATON CORP PDRN          R$  000000004780800000000478080000000047808000000004780800000000478080000000046812000000005120000001000000000000000001000000000000047808000000000000009999123100000010000000000000BRE1TNBDR002108
012022010302EQTL3       010EQUATORIAL  ON      NM   R$  000000000223000000000022810000000002181000000000220300000000022070000000002205000000000220720872000000000006342700000000013977282700000000000000009999123100000010000000000000BREQTLACNOR0127
012022010302LAME4       010LOJAS AMERICPN      N1   R$  000000000059100000000005950000000000553000000000057400000000005860000000000586000000000058727373000000000031806300000000018261792800000000000000009999123100000010000000000000BRLAMEACNPR6204
012022010302BGRT39      010GLOBAL REIT DRN          R$  000000000576000000000057600000000005706000000000573600000000057480000000005290000000000578100007000000000000000321000000000001841424000000000000009999123100000010000000000000BRBGRTBDR008103
012022010302GDBR34      010GEN DYNAMICSDRN          R$  000000011730000000001173000000000117300000000011730000000001173000000000000000000000014000000001000000000000000011000000000001290300000000000000009999123100000010000000000000BRGDBRBDR002125
012022010302AFLT3       010AFLUENTE T  ON           R$  000000000085000000000008880000000000850000000000086600000000008880000000000860000000000089900005000000000000000500000000000000433300000000000000009999123100000010000000000000BRAFLTACNOR1118
012022010302M1UF34      010MITSUBISHI UDRN          R$  000000000315000000000031500000000003147000000000314800000000031470000000002999000000000314700002000000000000000002000000000000006297000000000000009999123100000010000000000000BRM1UFBDR006102
012022010302MDIA3       010M.DIASBRANCOON      NM   R$  000000000256500000000025860000000002491000000000252000000000025080000000002507000000000250804579000000000001035300000000002609337700000000000000009999123100000010000000000000BRMDIAACNOR7123
012022010302SGPS3       010SPRINGS     ON      NM   R$  000000000048100000000004990000000000456000000000047000000000004700000000000466000000000047000220000000000000116800000000000054899400000000000000009999123100000010000000000000BRSGPSACNOR4104
012022010302ENJU3       010ENJOEI      ON      NM   R$  000000000028800000000002940000000000268000000000027500000000002680000000000268000000000027103430000000000002320100000000000639996500000000000000009999123100000010000000000000BRENJUACNOR9100
012022010302CRPG5       010CRISTAL     PNA EJ       R$  000000000689500000000069200000000006620000000000676600000000067280000000006700000000000672900054000000000000007200000000000048720300000000000000009999123100000010000000000000BRCRPGACNPA3114
012022010302RCSL4       010RECRUSUL    PN           R$  000000000014300000000001440000000000138000000000013900000000001390000000000138000000000014000712000000000000645000000000000090079000000000000000009999123100000010000000000000BRRCSLACNPR1130
012022010302LIGT3       010LIGHT S/A   ON      NM   R$  000000000118100000000011890000000001108000000000112700000000011120000000001112000000000111305644000000000001549000000000001746889300000000000000009999123100000010000000000000BRLIGTACNOR2123
012022011812KISU11      010FII KILIMA  CI           R$  000000000081800000000008390000000000814000000000082200000000008350000000000833000000000083503231000000000000090446000000000074407392000000000000009999123100000010000000000000BRKISUCTF000115
012022011812JBFO11      010FII JBFO FOFCI           R$  000000000899200000000089920000000008992000000000899200000000089920000000006500000000000000000001000000000000000150000000000001348800000000000000009999123100000010000000000000BRJBFOCTF007108
012022011812RBHG11      010FII RBCRI IVCI           R$  000000000877000000000088000000000008750000000000877000000000087990000000008780000000000879900175000000000000009753000000000085535049000000000000009999123100000010000000000000BRRBHGCTF002104
012022011812RBED11      010FII RIOB ED CI           R$  000000001240000000000124010000000012195000000001233800000000123710000000012367000000001237100192000000000000001816000000000022406343000000000000009999123100000010000000000000BRRBEDCTF006134
012022011812CARE11      010FII DEA CARECI           R$  000000000023600000000002420000000000225000000000023100000000002330000000000227000000000023303682000000000000105465000000000024392171000000000000009999123100000010000000000000BRCARECTF000112
012022011812FAED11      010FII ANH EDUCCI  ER       R$  000000001450300000000146970000000014200000000001439900000000142000000000014201000000001463900130000000000000000497000000000007156374000000000000009999123100000010000000000000BRFAEDCTF003248
012022011812HTMX11      010FII HOTEL MXCI           R$  000000000860400000000086050000000008550000000000857600000000085810000000008581000000000858500180000000000000001167000000000010009177000000000000009999123100000010000000000000BRHTMXCTF000257
012022011812RBRS11      010FII RIOB RR CI           R$  000000000651500000000066870000000006500000000000651400000000066870000000006501000000000668700006000000000000000107000000000000697079000000000000009999123100000010000000000000BRRBRSCTF006114
012022011812RMAI11      010FII REAGMULTCI           R$  000000000410000000000041000000000003654000000000373900000000036590000000003659000000000370000040000000000000001434000000000005362841000000000000009999123100000010000000000000BRRMAICTF000105
012022011812HGRE11      010FII HG REAL CI           R$  000000001390000000000139200000000013650000000001377700000000136500000000013650000000001373404421000000000000027043000000000372575263000000000000009999123100000010000000000000BRHGRECTF006263
012022011812EDFO11B     010FII OURINVESCI      MB   R$  000000002200000000000220000000000021900000000002194500000000219000000000021800000000002200000003000000000000000011000000000000241400000000000000009999123100000010000000000000BREDFOCTF004293
012022011812VIFI11      010FII VINCI IFCI           R$  000000000762400000000077290000000007586000000000763800000000076400000000007633000000000764001130000000000000002164000000000016530622000000000000009999123100000010000000000000BRVIFICTF009125
012022011812VTLT11      010FII VOT LOG CI           R$  000000000935800000000094980000000009261000000000931200000000093400000000009275000000000934000422000000000000005927000000000055195200000000000000009999123100000010000000000000BRVTLTCTF001143
012022011812DEVA11      010FII DEVANT  CI  ER       R$  000000001019400000000102390000000010151000000001020300000000101710000000010171000000001018907125000000000000088405000000000902082156000000000000009999123100000010000000000000BRDEVACTF000119
012022011812JRDM11      010FII SHOPJSULCI  ER       R$  000000000686600000000069010000000006856000000000686600000000069010000000006901000000000700000229000000000000003709000000000025469387000000000000009999123100000010000000000000BRJRDMCTF002208
012022011812VSLH11      010FII VERS CRICI  ER       R$  000000000096000000000009650000000000957000000000096000000000009610000000000961000000000096304393000000000000133496000000000128284562000000000000009999123100000010000000000000BRVSLHCTF008114
012022011812QIRI11      010FII QUATA   CI  ES       R$  000000000886900000000089990000000008869000000000891200000000089990000000009012000000000920000004000000000000000010000000000000089124000000000000009999123100000010000000000000BRQIRICTF004106
012022011812GCRI11      010FII GLPG CRICI  ER       R$  000000000980900000000098240000000009780000000000980600000000098240000000009817000000000982400043000000000000000910000000000008923967000000000000009999123100000010000000000000BRGCRICTF008113